11011700020240621000111788000000000001088530000000002                                                                                                                                                                                                                                   
1101170002024062100012178800000000000052500000134604012086008646649785MUTUELLE DE LA STEG           1747417474201402409163556BARKATI MARWEN                        2024LP550421000LP REMBOURSEMENT DES FRAIS MEDICAUX          2024062100000000010                                      
1101170002024062100022178800000000000056353000134604012086008646649785MUTUELLE DE LA STEG           1747417474201402404710868SAHBANI IMED                          2024LP550638000LP REMBOURSEMENT DES FRAIS MEDICAUX          2024062100000000010                                      
