110104   20240613000111788000000000038403090000000003                                                                                                                                                                                                                                   
110104   2024061300012178800000000002000000000093904012086006134058494STEG                          0104101041085113010910719KASRAOUIOUSSAMA                       2024FOCHI0439OPERATION CHIRURGICAL                          2024061300000000010                                      
110104   2024061300012178800000000001040309000093904012086006134058494STEG                          0300003000010010121669388KHALLADIHEDI                          2024FOCHI0440OPERATION CHIRURGICAL                          2024061300000000010                                      
110104   2024061300012178800000000000800000000093904012086006134058494STEG                          1747417474201402414126561ABBESAHMED                            2024FOCHI0441OPERATION CHIRURGICAL                          2024061300000000010                                      