11011700020221218000111788000000000006514120000000010                                                                                                                                                                                                                                   
1101170002022121800012178800000000000064590000012317001000000302388764STEG                          1747417474201402414171181BRIKI ELMEKKI                         2022RC001525000C REMBOURSEMENT DES FRAIS MEDICAUX           2022121800000000010                                      
1101170002022121800022178800000000000081270000012317001000000302388764STEG                          1747417474201402414171181BRIKI ELMEKKI                         2022RC001526000C REMBOURSEMENT DES FRAIS MEDICAUX           2022121800000000010                                      
1101170002022121800032178800000000000064590000012317001000000302388764STEG                          1747417474201402414171181BRIKI ELMEKKI                         2022RC001530000C REMBOURSEMENT DES FRAIS MEDICAUX           2022121800000000010                                      
1101170002022121800042178800000000000023670000012317001000000302388764STEG                          1747417474201402405959064BEN ABDERRAHMEN SAMIR                 2022RC001552000C REMBOURSEMENT DES FRAIS MEDICAUX           2022121800000000010                                      
1101170002022121800052178800000000000053426000012317001000000302388764STEG                          1747417474201402411980824LOUATI NOUREDDINE                     2022RC001577000C REMBOURSEMENT DES FRAIS MEDICAUX           2022121800000000010                                      
1101170002022121800062178800000000000054630000012317001000000302388764STEG                          1747417474201402411980824LOUATI NOUREDDINE                     2022RC001578000C REMBOURSEMENT DES FRAIS MEDICAUX           2022121800000000010                                      
1101170002022121800072178800000000000053426000012317001000000302388764STEG                          1747417474201402411980824LOUATI NOUREDDINE                     2022RC001579000C REMBOURSEMENT DES FRAIS MEDICAUX           2022121800000000010                                      
1101170002022121800082178800000000000112870000012317001000000302388764STEG                          1747417474201402405231467EL ECHI AHMED                         2022RC001581000C REMBOURSEMENT DES FRAIS MEDICAUX           2022121800000000010                                      
1101170002022121800092178800000000000027508000012317001000000302388764STEG                          1747417474201402403875019EPOUSE JAIDI CHEDIA GMIR              2022RC001652000C REMBOURSEMENT DES FRAIS MEDICAUX           2022121800000000010                                      
1101170002022121800102178800000000000115432000012317001000000302388764STEG                          1747417474201402405401314LETAIEF YOUSSEF                       2022RC001667000C REMBOURSEMENT DES FRAIS MEDICAUX           2022121800000000010                                      
